{
  "contractName": "AdditionGame",
  "abi": [
    {
      "constant": true,
      "inputs": [],
      "name": "owner",
      "outputs": [
        {
          "name": "",
          "type": "address"
        }
      ],
      "payable": false,
      "stateMutability": "view",
      "type": "function"
    },
    {
      "inputs": [],
      "payable": false,
      "stateMutability": "nonpayable",
      "type": "constructor"
    },
    {
      "constant": true,
      "inputs": [],
      "name": "getBalance",
      "outputs": [
        {
          "name": "",
          "type": "uint256"
        }
      ],
      "payable": false,
      "stateMutability": "view",
      "type": "function"
    },
    {
      "constant": false,
      "inputs": [],
      "name": "deposit",
      "outputs": [],
      "payable": true,
      "stateMutability": "payable",
      "type": "function"
    },
    {
      "constant": false,
      "inputs": [
        {
          "name": "_value",
          "type": "uint256"
        }
      ],
      "name": "transfer",
      "outputs": [
        {
          "name": "",
          "type": "bool"
        }
      ],
      "payable": false,
      "stateMutability": "nonpayable",
      "type": "function"
    }
  ],
  "bytecode": "0x608060405234801561001057600080fd5b50336000806101000a81548173ffffffffffffffffffffffffffffffffffffffff021916908373ffffffffffffffffffffffffffffffffffffffff16021790555061026d806100606000396000f300608060405260043610610062576000357c0100000000000000000000000000000000000000000000000000000000900463ffffffff16806312065fe01461006757806312514bba146100925780638da5cb5b146100d7578063d0e30db01461012e575b600080fd5b34801561007357600080fd5b5061007c610138565b6040518082815260200191505060405180910390f35b34801561009e57600080fd5b506100bd60048036038101908080359060200190929190505050610157565b604051808215151515815260200191505060405180910390f35b3480156100e357600080fd5b506100ec6101bf565b604051808273ffffffffffffffffffffffffffffffffffffffff1673ffffffffffffffffffffffffffffffffffffffff16815260200191505060405180910390f35b6101366101e4565b005b60003073ffffffffffffffffffffffffffffffffffffffff1631905090565b600081610162610138565b1015151561016f57600080fd5b3373ffffffffffffffffffffffffffffffffffffffff166108fc839081150290604051600060405180830381858888f193505050501580156101b5573d6000803e3d6000fd5b5060019050919050565b6000809054906101000a900473ffffffffffffffffffffffffffffffffffffffff1681565b6000809054906101000a900473ffffffffffffffffffffffffffffffffffffffff1673ffffffffffffffffffffffffffffffffffffffff163373ffffffffffffffffffffffffffffffffffffffff1614151561023f57600080fd5b5600a165627a7a7230582047688ce1ca88baaf5a1cd1e6ef263f2413f6b952f1c65927db48d58989e16a860029",
  "source": "pragma solidity ^0.4.24;\n\ncontract AdditionGame {\n    address public owner;\n\n    constructor() public {\n        owner = msg.sender;\n    }\n    \n    function getBalance() public view returns (uint) {        \n        return address(this).balance;\n    }\n\n    function deposit() public payable {  \n        require(msg.sender == owner);\n    }   \n  \n    function transfer(uint _value) public returns (bool) {\n        require(getBalance() >= _value);\n        msg.sender.transfer(_value);\n        return true;\n    }\n}\n",
  "sourcePath": "/home/ted/project/Klaytn/addition-game-starter/contracts/AdditionGame.sol",
  "compiler": {
    "name": "solc",
    "version": "0.4.25+commit.59dbf8f1.Emscripten.clang"
  },
  "schemaVersion": "2.0.2",
  "updatedAt": "2019-06-27T21:14:57.428Z"
}